{
  "_format": "hh-sol-artifact-1",
  "contractName": "ProposalContract",
  "sourceName": "contracts/Proposal.sol",
  "abi": [
    {
      "inputs": [
        {
          "internalType": "string",
          "name": "_title",
          "type": "string"
        },
        {
          "internalType": "string",
          "name": "_description",
          "type": "string"
        }
      ],
      "name": "createProposal",
      "outputs": [],
      "stateMutability": "nonpayable",
      "type": "function"
    },
    {
      "inputs": [],
      "name": "getProposals",
      "outputs": [
        {
          "components": [
            {
              "internalType": "string",
              "name": "title",
              "type": "string"
            },
            {
              "internalType": "string",
              "name": "description",
              "type": "string"
            }
          ],
          "internalType": "struct ProposalContract.Proposal[]",
          "name": "",
          "type": "tuple[]"
        }
      ],
      "stateMutability": "view",
      "type": "function"
    },
    {
      "inputs": [
        {
          "internalType": "uint256",
          "name": "",
          "type": "uint256"
        }
      ],
      "name": "proposals",
      "outputs": [
        {
          "internalType": "string",
          "name": "title",
          "type": "string"
        },
        {
          "internalType": "string",
          "name": "description",
          "type": "string"
        }
      ],
      "stateMutability": "view",
      "type": "function"
    }
  ],
  "bytecode": "0x6080604052348015600f57600080fd5b50610b438061001f6000396000f3fe608060405234801561001057600080fd5b50600436106100415760003560e01c8063013cf08b1461004657806362564c481461007757806365e481e214610095575b600080fd5b610060600480360381019061005b91906104b4565b6100b1565b60405161006e929190610571565b60405180910390f35b61007f6101f5565b60405161008c91906106f8565b60405180910390f35b6100af60048036038101906100aa919061077f565b610378565b005b600081815481106100c157600080fd5b90600052602060002090600202016000915090508060000180546100e49061082f565b80601f01602080910402602001604051908101604052809291908181526020018280546101109061082f565b801561015d5780601f106101325761010080835404028352916020019161015d565b820191906000526020600020905b81548152906001019060200180831161014057829003601f168201915b5050505050908060010180546101729061082f565b80601f016020809104026020016040519081016040528092919081815260200182805461019e9061082f565b80156101eb5780601f106101c0576101008083540402835291602001916101eb565b820191906000526020600020905b8154815290600101906020018083116101ce57829003601f168201915b5050505050905082565b60606000805480602002602001604051908101604052809291908181526020016000905b8282101561036f578382906000526020600020906002020160405180604001604052908160008201805461024c9061082f565b80601f01602080910402602001604051908101604052809291908181526020018280546102789061082f565b80156102c55780601f1061029a576101008083540402835291602001916102c5565b820191906000526020600020905b8154815290600101906020018083116102a857829003601f168201915b505050505081526020016001820180546102de9061082f565b80601f016020809104026020016040519081016040528092919081815260200182805461030a9061082f565b80156103575780601f1061032c57610100808354040283529160200191610357565b820191906000526020600020905b81548152906001019060200180831161033a57829003601f168201915b50505050508152505081526020019060010190610219565b50505050905090565b6000604051806040016040528086868080601f016020809104026020016040519081016040528093929190818152602001838380828437600081840152601f19601f82011690508083019250505050505050815260200184848080601f016020809104026020016040519081016040528093929190818152602001838380828437600081840152601f19601f82011690508083019250505050505050815250908060018154018082558091505060019003906000526020600020906002020160009091909190915060008201518160000190816104559190610a3b565b50602082015181600101908161046b9190610a3b565b50505050505050565b600080fd5b600080fd5b6000819050919050565b6104918161047e565b811461049c57600080fd5b50565b6000813590506104ae81610488565b92915050565b6000602082840312156104ca576104c9610474565b5b60006104d88482850161049f565b91505092915050565b600081519050919050565b600082825260208201905092915050565b60005b8381101561051b578082015181840152602081019050610500565b60008484015250505050565b6000601f19601f8301169050919050565b6000610543826104e1565b61054d81856104ec565b935061055d8185602086016104fd565b61056681610527565b840191505092915050565b6000604082019050818103600083015261058b8185610538565b9050818103602083015261059f8184610538565b90509392505050565b600081519050919050565b600082825260208201905092915050565b6000819050602082019050919050565b600082825260208201905092915050565b60006105f0826104e1565b6105fa81856105d4565b935061060a8185602086016104fd565b61061381610527565b840191505092915050565b6000604083016000830151848203600086015261063b82826105e5565b9150506020830151848203602086015261065582826105e5565b9150508091505092915050565b600061066e838361061e565b905092915050565b6000602082019050919050565b600061068e826105a8565b61069881856105b3565b9350836020820285016106aa856105c4565b8060005b858110156106e657848403895281516106c78582610662565b94506106d283610676565b925060208a019950506001810190506106ae565b50829750879550505050505092915050565b600060208201905081810360008301526107128184610683565b905092915050565b600080fd5b600080fd5b600080fd5b60008083601f84011261073f5761073e61071a565b5b8235905067ffffffffffffffff81111561075c5761075b61071f565b5b60208301915083600182028301111561077857610777610724565b5b9250929050565b6000806000806040858703121561079957610798610474565b5b600085013567ffffffffffffffff8111156107b7576107b6610479565b5b6107c387828801610729565b9450945050602085013567ffffffffffffffff8111156107e6576107e5610479565b5b6107f287828801610729565b925092505092959194509250565b7f4e487b7100000000000000000000000000000000000000000000000000000000600052602260045260246000fd5b6000600282049050600182168061084757607f821691505b60208210810361085a57610859610800565b5b50919050565b7f4e487b7100000000000000000000000000000000000000000000000000000000600052604160045260246000fd5b60008190508160005260206000209050919050565b60006020601f8301049050919050565b600082821b905092915050565b6000600883026108f17fffffffffffffffffffffffffffffffffffffffffffffffffffffffffffffffff826108b4565b6108fb86836108b4565b95508019841693508086168417925050509392505050565b6000819050919050565b600061093861093361092e8461047e565b610913565b61047e565b9050919050565b6000819050919050565b6109528361091d565b61096661095e8261093f565b8484546108c1565b825550505050565b600090565b61097b61096e565b610986818484610949565b505050565b5b818110156109aa5761099f600082610973565b60018101905061098c565b5050565b601f8211156109ef576109c08161088f565b6109c9846108a4565b810160208510156109d8578190505b6109ec6109e4856108a4565b83018261098b565b50505b505050565b600082821c905092915050565b6000610a12600019846008026109f4565b1980831691505092915050565b6000610a2b8383610a01565b9150826002028217905092915050565b610a44826104e1565b67ffffffffffffffff811115610a5d57610a5c610860565b5b610a67825461082f565b610a728282856109ae565b600060209050601f831160018114610aa55760008415610a93578287015190505b610a9d8582610a1f565b865550610b05565b601f198416610ab38661088f565b60005b82811015610adb57848901518255600182019150602085019450602081019050610ab6565b86831015610af85784890151610af4601f891682610a01565b8355505b6001600288020188555050505b50505050505056fea26469706673582212201020904d33eaae91df65ad331ffad38ff2365818ecc7276de33e97b154607cf164736f6c634300081c0033",
  "linkReferences": {},
  "deployedLinkReferences": {}
}